:080000000C9434000C94000084
:100008000C9400000C9400000C9400000C94000068
:100018000C9400000C9400000C9400000C94000058
:100028000C9400000C9400000C9400000C94000048
:100038000C9400000C9400000C9400000C94000038
:100048000C9400000C9400000C9400000C94000028
:100058000C9400000C9400000C9400000C94000018
:10006800F894EE27EFBBF1E0F5BFE5BF8DE0A2E025
:10007800BB27ED938A95E9F780E098E0A0E0B1E02E
:10008800ED930197E9F7E0E0EEBBEFEFEDBFE8E0B5
:10009800EEBFC0E0D3E00C94510000E010E0E1E0D6
:1000A8000E27A8EEB3E00E948200E02FE795E0E07B
:1000B800E795AE2FE02FE295E07FEE0FEE0FEA2BEB
:1000C800AE2FE02FE295E07FEE0FEA2BAE2FE02F68
:1000D800E295E07FEA2BAE2FE02FEE0FEE0FEE0F4A
:1000E800EA2BAE2FE02FEE0FEE0FEA2BAE2FE02F0C
:1000F800EE0FEA2BE02BE5B9D2CFFFCF109639F0FF
:10010800A89580ED97E00197F1F71197C9F7089541
:00000001FF
