:040000000C94340028
:100004000C9400000C9400000C9400000C9400006C
:100014000C9400000C9400000C9400000C9400005C
:100024000C9400000C9400000C9400000C9400004C
:100034000C9400000C9400000C9400000C9400003C
:100044000C9400000C9400000C9400000C9400002C
:100054000C9400000C9400000C9400000C9400001C
:100064000C940000F894EE27EFBBF1E0F5BFE5BF78
:100074008DE0A2E0BB27ED938A95E9F780E098E054
:10008400A0E0B1E0ED930197E9F7E0E0EEBBEFEF1C
:10009400EDBFE8E0EEBFC0E0D3E00C94AE001A93ED
:1000A4000A9300E010E045980030E0E11E0708F0F4
:1000B40050C02C982C9A5C9800FD02C02B9801C06B
:1000C4002B9A01FD02C02A9801C02A9A02FD02C09F
:1000D400299801C0299A03FD02C0289801C0289AD2
:1000E40004FD02C02D9801C02D9A05FD02C0409860
:1000F40001C0409A06FD02C0419801C0419A07FD23
:1001040002C0449801C0449AE02FE07011F443986F
:1001140001C0439AE02FE07011F4429801C0429A62
:10012400E02FE07011F45F9801C05F9AE02FE07057
:1001340011F45E9801C05E9A5C9AA5E0B0E00E945A
:10014400B0005C98A5E0B0E00E94B0000F5F1F4FC4
:10015400ABCF099119910895A2DFFFCF109639F022
:10016400A89580ED97E00197F1F71197C9F70895E5
:00000001FF
